{
	"contracts/FundmeContract.sol": {
		"FundMe": {
			"abi": [
				{
					"inputs": [],
					"stateMutability": "nonpayable",
					"type": "constructor"
				},
				{
					"inputs": [],
					"name": "NotOwner",
					"type": "error"
				},
				{
					"stateMutability": "payable",
					"type": "fallback"
				},
				{
					"inputs": [],
					"name": "ReceiveFunds",
					"outputs": [],
					"stateMutability": "payable",
					"type": "function"
				},
				{
					"inputs": [],
					"name": "WithdrawFunds",
					"outputs": [],
					"stateMutability": "nonpayable",
					"type": "function"
				},
				{
					"stateMutability": "payable",
					"type": "receive"
				}
			],
			"devdoc": {
				"kind": "dev",
				"methods": {},
				"version": 1
			},
			"evm": {
				"assembly": "    /* \"contracts/FundmeContract.sol\":77:849  contract FundMe{... */\n  mstore(0x40, 0xa0)\n    /* \"contracts/FundmeContract.sol\":392:440  constructor(){... */\n  callvalue\n  dup1\n  iszero\n  tag_1\n  jumpi\n  0x00\n  dup1\n  revert\ntag_1:\n  pop\n    /* \"contracts/FundmeContract.sol\":423:433  msg.sender */\n  caller\n    /* \"contracts/FundmeContract.sol\":415:433  owner = msg.sender */\n  0xffffffffffffffffffffffffffffffffffffffff\n  and\n  0x80\n  dup2\n  0xffffffffffffffffffffffffffffffffffffffff\n  and\n  0x60\n  shl\n  dup2\n  mstore\n  pop\n  pop\n    /* \"contracts/FundmeContract.sol\":77:849  contract FundMe{... */\n  shr(0x60, mload(0x80))\n  codecopy(0x00, dataOffset(sub_0), dataSize(sub_0))\n  0x00\n  assignImmutable(\"0x731dc163f73d31d8c68f9917ce4ff967753939f70432973c04fd2c2a48148607\")\n  return(0x00, dataSize(sub_0))\nstop\n\nsub_0: assembly {\n        /* \"contracts/FundmeContract.sol\":77:849  contract FundMe{... */\n      mstore(0x40, 0x80)\n      jumpi(tag_1, lt(calldatasize, 0x04))\n      shr(0xe0, calldataload(0x00))\n      dup1\n      0x4c0aac9a\n      eq\n      tag_3\n      jumpi\n      dup1\n      0xca8bcec9\n      eq\n      tag_4\n      jumpi\n      jump(tag_2)\n    tag_1:\n      jumpi(tag_2, calldatasize)\n        /* \"contracts/FundmeContract.sol\":671:685  ReceiveFunds() */\n      tag_7\n        /* \"contracts/FundmeContract.sol\":671:683  ReceiveFunds */\n      tag_8\n        /* \"contracts/FundmeContract.sol\":671:685  ReceiveFunds() */\n      jump\t// in\n    tag_7:\n        /* \"contracts/FundmeContract.sol\":77:849  contract FundMe{... */\n      stop\n    tag_2:\n        /* \"contracts/FundmeContract.sol\":735:749  ReceiveFunds() */\n      tag_11\n        /* \"contracts/FundmeContract.sol\":735:747  ReceiveFunds */\n      tag_8\n        /* \"contracts/FundmeContract.sol\":735:749  ReceiveFunds() */\n      jump\t// in\n    tag_11:\n        /* \"contracts/FundmeContract.sol\":77:849  contract FundMe{... */\n      stop\n        /* \"contracts/FundmeContract.sol\":586:629  function WithdrawFunds() public OnlyOwner{} */\n    tag_3:\n      callvalue\n      dup1\n      iszero\n      tag_12\n      jumpi\n      0x00\n      dup1\n      revert\n    tag_12:\n      pop\n      tag_13\n      tag_14\n      jump\t// in\n    tag_13:\n      stop\n        /* \"contracts/FundmeContract.sol\":446:581  function ReceiveFunds() public payable{... */\n    tag_4:\n      tag_15\n      tag_8\n      jump\t// in\n    tag_15:\n      stop\n    tag_8:\n        /* \"contracts/FundmeContract.sol\":531:540  msg.value */\n      callvalue\n        /* \"contracts/FundmeContract.sol\":494:515  AddresstoFundedAmount */\n      0x00\n        /* \"contracts/FundmeContract.sol\":494:527  AddresstoFundedAmount[msg.sender] */\n      dup1\n        /* \"contracts/FundmeContract.sol\":516:526  msg.sender */\n      caller\n        /* \"contracts/FundmeContract.sol\":494:527  AddresstoFundedAmount[msg.sender] */\n      0xffffffffffffffffffffffffffffffffffffffff\n      and\n      0xffffffffffffffffffffffffffffffffffffffff\n      and\n      dup2\n      mstore\n      0x20\n      add\n      swap1\n      dup2\n      mstore\n      0x20\n      add\n      0x00\n      keccak256\n      0x00\n        /* \"contracts/FundmeContract.sol\":494:540  AddresstoFundedAmount[msg.sender] += msg.value */\n      dup3\n      dup3\n      sload\n      tag_17\n      swap2\n      swap1\n      tag_18\n      jump\t// in\n    tag_17:\n      swap3\n      pop\n      pop\n      dup2\n      swap1\n      sstore\n      pop\n        /* \"contracts/FundmeContract.sol\":550:557  Funders */\n      0x01\n        /* \"contracts/FundmeContract.sol\":563:573  msg.sender */\n      caller\n        /* \"contracts/FundmeContract.sol\":550:574  Funders.push(msg.sender) */\n      swap1\n      dup1\n      0x01\n      dup2\n      sload\n      add\n      dup1\n      dup3\n      sstore\n      dup1\n      swap2\n      pop\n      pop\n      0x01\n      swap1\n      sub\n      swap1\n      0x00\n      mstore\n      keccak256(0x00, 0x20)\n      add\n      0x00\n      swap1\n      swap2\n      swap1\n      swap2\n      swap1\n      swap2\n      0x0100\n      exp\n      dup2\n      sload\n      dup2\n      0xffffffffffffffffffffffffffffffffffffffff\n      mul\n      not\n      and\n      swap1\n      dup4\n      0xffffffffffffffffffffffffffffffffffffffff\n      and\n      mul\n      or\n      swap1\n      sstore\n      pop\n        /* \"contracts/FundmeContract.sol\":446:581  function ReceiveFunds() public payable{... */\n      jump\t// out\n        /* \"contracts/FundmeContract.sol\":586:629  function WithdrawFunds() public OnlyOwner{} */\n    tag_14:\n        /* \"contracts/FundmeContract.sol\":805:810  owner */\n      immutable(\"0x731dc163f73d31d8c68f9917ce4ff967753939f70432973c04fd2c2a48148607\")\n        /* \"contracts/FundmeContract.sol\":793:810  msg.sender!=owner */\n      0xffffffffffffffffffffffffffffffffffffffff\n      and\n        /* \"contracts/FundmeContract.sol\":793:803  msg.sender */\n      caller\n        /* \"contracts/FundmeContract.sol\":793:810  msg.sender!=owner */\n      0xffffffffffffffffffffffffffffffffffffffff\n      and\n      eq\n        /* \"contracts/FundmeContract.sol\":790:829  if(msg.sender!=owner) revert NotOwner() */\n      tag_21\n      jumpi\n        /* \"contracts/FundmeContract.sol\":819:829  NotOwner() */\n      mload(0x40)\n      0x30cd747100000000000000000000000000000000000000000000000000000000\n      dup2\n      mstore\n      0x04\n      add\n      mload(0x40)\n      dup1\n      swap2\n      sub\n      swap1\n      revert\n        /* \"contracts/FundmeContract.sol\":790:829  if(msg.sender!=owner) revert NotOwner() */\n    tag_21:\n        /* \"contracts/FundmeContract.sol\":586:629  function WithdrawFunds() public OnlyOwner{} */\n      jump\t// out\n        /* \"#utility.yul\":7:312   */\n    tag_18:\n        /* \"#utility.yul\":47:50   */\n      0x00\n        /* \"#utility.yul\":66:86   */\n      tag_25\n        /* \"#utility.yul\":84:85   */\n      dup3\n        /* \"#utility.yul\":66:86   */\n      tag_26\n      jump\t// in\n    tag_25:\n        /* \"#utility.yul\":61:86   */\n      swap2\n      pop\n        /* \"#utility.yul\":100:120   */\n      tag_27\n        /* \"#utility.yul\":118:119   */\n      dup4\n        /* \"#utility.yul\":100:120   */\n      tag_26\n      jump\t// in\n    tag_27:\n        /* \"#utility.yul\":95:120   */\n      swap3\n      pop\n        /* \"#utility.yul\":254:255   */\n      dup3\n        /* \"#utility.yul\":186:252   */\n      0xffffffffffffffffffffffffffffffffffffffffffffffffffffffffffffffff\n        /* \"#utility.yul\":182:256   */\n      sub\n        /* \"#utility.yul\":179:180   */\n      dup3\n        /* \"#utility.yul\":176:257   */\n      gt\n        /* \"#utility.yul\":173:280   */\n      iszero\n      tag_28\n      jumpi\n        /* \"#utility.yul\":260:278   */\n      tag_29\n      tag_30\n      jump\t// in\n    tag_29:\n        /* \"#utility.yul\":173:280   */\n    tag_28:\n        /* \"#utility.yul\":304:305   */\n      dup3\n        /* \"#utility.yul\":301:302   */\n      dup3\n        /* \"#utility.yul\":297:306   */\n      add\n        /* \"#utility.yul\":290:306   */\n      swap1\n      pop\n        /* \"#utility.yul\":7:312   */\n      swap3\n      swap2\n      pop\n      pop\n      jump\t// out\n        /* \"#utility.yul\":318:395   */\n    tag_26:\n        /* \"#utility.yul\":355:362   */\n      0x00\n        /* \"#utility.yul\":384:389   */\n      dup2\n        /* \"#utility.yul\":373:389   */\n      swap1\n      pop\n        /* \"#utility.yul\":318:395   */\n      swap2\n      swap1\n      pop\n      jump\t// out\n        /* \"#utility.yul\":401:581   */\n    tag_30:\n        /* \"#utility.yul\":449:526   */\n      0x4e487b7100000000000000000000000000000000000000000000000000000000\n        /* \"#utility.yul\":446:447   */\n      0x00\n        /* \"#utility.yul\":439:527   */\n      mstore\n        /* \"#utility.yul\":546:550   */\n      0x11\n        /* \"#utility.yul\":543:544   */\n      0x04\n        /* \"#utility.yul\":536:551   */\n      mstore\n        /* \"#utility.yul\":570:574   */\n      0x24\n        /* \"#utility.yul\":567:568   */\n      0x00\n        /* \"#utility.yul\":560:575   */\n      revert\n\n    auxdata: 0xa2646970667358221220bac651e5a68d85397f096995cca25e647412aa806a7ef088e2a41c4ea4961a4e64736f6c63430008070033\n}\n",
				"bytecode": {
					"linkReferences": {},
					"object": "60a060405234801561001057600080fd5b503373ffffffffffffffffffffffffffffffffffffffff1660808173ffffffffffffffffffffffffffffffffffffffff1660601b8152505060805160601c61026d6100666000396000610123015261026d6000f3fe60806040526004361061002d5760003560e01c80634c0aac9a14610046578063ca8bcec91461005d5761003c565b3661003c5761003a610067565b005b610044610067565b005b34801561005257600080fd5b5061005b610121565b005b610065610067565b005b346000803373ffffffffffffffffffffffffffffffffffffffff1673ffffffffffffffffffffffffffffffffffffffff16815260200190815260200160002060008282546100b591906101a8565b925050819055506001339080600181540180825580915050600190039060005260206000200160009091909190916101000a81548173ffffffffffffffffffffffffffffffffffffffff021916908373ffffffffffffffffffffffffffffffffffffffff160217905550565b7f000000000000000000000000000000000000000000000000000000000000000073ffffffffffffffffffffffffffffffffffffffff163373ffffffffffffffffffffffffffffffffffffffff16146101a6576040517f30cd747100000000000000000000000000000000000000000000000000000000815260040160405180910390fd5b565b60006101b3826101fe565b91506101be836101fe565b9250827fffffffffffffffffffffffffffffffffffffffffffffffffffffffffffffffff038211156101f3576101f2610208565b5b828201905092915050565b6000819050919050565b7f4e487b7100000000000000000000000000000000000000000000000000000000600052601160045260246000fdfea2646970667358221220bac651e5a68d85397f096995cca25e647412aa806a7ef088e2a41c4ea4961a4e64736f6c63430008070033",
					"opcodes": "PUSH1 0xA0 PUSH1 0x40 MSTORE CALLVALUE DUP1 ISZERO PUSH2 0x10 JUMPI PUSH1 0x0 DUP1 REVERT JUMPDEST POP CALLER PUSH20 0xFFFFFFFFFFFFFFFFFFFFFFFFFFFFFFFFFFFFFFFF AND PUSH1 0x80 DUP2 PUSH20 0xFFFFFFFFFFFFFFFFFFFFFFFFFFFFFFFFFFFFFFFF AND PUSH1 0x60 SHL DUP2 MSTORE POP POP PUSH1 0x80 MLOAD PUSH1 0x60 SHR PUSH2 0x26D PUSH2 0x66 PUSH1 0x0 CODECOPY PUSH1 0x0 PUSH2 0x123 ADD MSTORE PUSH2 0x26D PUSH1 0x0 RETURN INVALID PUSH1 0x80 PUSH1 0x40 MSTORE PUSH1 0x4 CALLDATASIZE LT PUSH2 0x2D JUMPI PUSH1 0x0 CALLDATALOAD PUSH1 0xE0 SHR DUP1 PUSH4 0x4C0AAC9A EQ PUSH2 0x46 JUMPI DUP1 PUSH4 0xCA8BCEC9 EQ PUSH2 0x5D JUMPI PUSH2 0x3C JUMP JUMPDEST CALLDATASIZE PUSH2 0x3C JUMPI PUSH2 0x3A PUSH2 0x67 JUMP JUMPDEST STOP JUMPDEST PUSH2 0x44 PUSH2 0x67 JUMP JUMPDEST STOP JUMPDEST CALLVALUE DUP1 ISZERO PUSH2 0x52 JUMPI PUSH1 0x0 DUP1 REVERT JUMPDEST POP PUSH2 0x5B PUSH2 0x121 JUMP JUMPDEST STOP JUMPDEST PUSH2 0x65 PUSH2 0x67 JUMP JUMPDEST STOP JUMPDEST CALLVALUE PUSH1 0x0 DUP1 CALLER PUSH20 0xFFFFFFFFFFFFFFFFFFFFFFFFFFFFFFFFFFFFFFFF AND PUSH20 0xFFFFFFFFFFFFFFFFFFFFFFFFFFFFFFFFFFFFFFFF AND DUP2 MSTORE PUSH1 0x20 ADD SWAP1 DUP2 MSTORE PUSH1 0x20 ADD PUSH1 0x0 KECCAK256 PUSH1 0x0 DUP3 DUP3 SLOAD PUSH2 0xB5 SWAP2 SWAP1 PUSH2 0x1A8 JUMP JUMPDEST SWAP3 POP POP DUP2 SWAP1 SSTORE POP PUSH1 0x1 CALLER SWAP1 DUP1 PUSH1 0x1 DUP2 SLOAD ADD DUP1 DUP3 SSTORE DUP1 SWAP2 POP POP PUSH1 0x1 SWAP1 SUB SWAP1 PUSH1 0x0 MSTORE PUSH1 0x20 PUSH1 0x0 KECCAK256 ADD PUSH1 0x0 SWAP1 SWAP2 SWAP1 SWAP2 SWAP1 SWAP2 PUSH2 0x100 EXP DUP2 SLOAD DUP2 PUSH20 0xFFFFFFFFFFFFFFFFFFFFFFFFFFFFFFFFFFFFFFFF MUL NOT AND SWAP1 DUP4 PUSH20 0xFFFFFFFFFFFFFFFFFFFFFFFFFFFFFFFFFFFFFFFF AND MUL OR SWAP1 SSTORE POP JUMP JUMPDEST PUSH32 0x0 PUSH20 0xFFFFFFFFFFFFFFFFFFFFFFFFFFFFFFFFFFFFFFFF AND CALLER PUSH20 0xFFFFFFFFFFFFFFFFFFFFFFFFFFFFFFFFFFFFFFFF AND EQ PUSH2 0x1A6 JUMPI PUSH1 0x40 MLOAD PUSH32 0x30CD747100000000000000000000000000000000000000000000000000000000 DUP2 MSTORE PUSH1 0x4 ADD PUSH1 0x40 MLOAD DUP1 SWAP2 SUB SWAP1 REVERT JUMPDEST JUMP JUMPDEST PUSH1 0x0 PUSH2 0x1B3 DUP3 PUSH2 0x1FE JUMP JUMPDEST SWAP2 POP PUSH2 0x1BE DUP4 PUSH2 0x1FE JUMP JUMPDEST SWAP3 POP DUP3 PUSH32 0xFFFFFFFFFFFFFFFFFFFFFFFFFFFFFFFFFFFFFFFFFFFFFFFFFFFFFFFFFFFFFFFF SUB DUP3 GT ISZERO PUSH2 0x1F3 JUMPI PUSH2 0x1F2 PUSH2 0x208 JUMP JUMPDEST JUMPDEST DUP3 DUP3 ADD SWAP1 POP SWAP3 SWAP2 POP POP JUMP JUMPDEST PUSH1 0x0 DUP2 SWAP1 POP SWAP2 SWAP1 POP JUMP JUMPDEST PUSH32 0x4E487B7100000000000000000000000000000000000000000000000000000000 PUSH1 0x0 MSTORE PUSH1 0x11 PUSH1 0x4 MSTORE PUSH1 0x24 PUSH1 0x0 REVERT INVALID LOG2 PUSH5 0x6970667358 0x22 SLT KECCAK256 0xBA 0xC6 MLOAD 0xE5 0xA6 DUP14 DUP6 CODECOPY PUSH32 0x96995CCA25E647412AA806A7EF088E2A41C4EA4961A4E64736F6C6343000807 STOP CALLER "
				},
				"gasEstimates": {
					"creation": {
						"codeDepositCost": "124200",
						"executionCost": "infinite",
						"totalCost": "infinite"
					},
					"external": {
						"": "infinite",
						"ReceiveFunds()": "infinite",
						"WithdrawFunds()": "infinite"
					}
				},
				"methodIdentifiers": {
					"ReceiveFunds()": "ca8bcec9",
					"WithdrawFunds()": "4c0aac9a"
				}
			},
			"storageLayout": {
				"storage": [
					{
						"astId": 24,
						"contract": "contracts/FundmeContract.sol:FundMe",
						"label": "AddresstoFundedAmount",
						"offset": 0,
						"slot": "0",
						"type": "t_mapping(t_address,t_uint256)"
					},
					{
						"astId": 27,
						"contract": "contracts/FundmeContract.sol:FundMe",
						"label": "Funders",
						"offset": 0,
						"slot": "1",
						"type": "t_array(t_address)dyn_storage"
					}
				],
				"types": {
					"t_address": {
						"encoding": "inplace",
						"label": "address",
						"numberOfBytes": "20"
					},
					"t_array(t_address)dyn_storage": {
						"base": "t_address",
						"encoding": "dynamic_array",
						"label": "address[]",
						"numberOfBytes": "32"
					},
					"t_mapping(t_address,t_uint256)": {
						"encoding": "mapping",
						"key": "t_address",
						"label": "mapping(address => uint256)",
						"numberOfBytes": "32",
						"value": "t_uint256"
					},
					"t_uint256": {
						"encoding": "inplace",
						"label": "uint256",
						"numberOfBytes": "32"
					}
				}
			},
			"userdoc": {
				"kind": "user",
				"methods": {},
				"version": 1
			}
		}
	}
}