{
	"contracts/FundmeContract.sol": {
		"FundMe": {
			"abi": [
				{
					"inputs": [],
					"stateMutability": "nonpayable",
					"type": "constructor"
				},
				{
					"inputs": [],
					"name": "NotOwner",
					"type": "error"
				},
				{
					"stateMutability": "payable",
					"type": "fallback"
				},
				{
					"inputs": [],
					"name": "ReceiveFunds",
					"outputs": [],
					"stateMutability": "payable",
					"type": "function"
				},
				{
					"inputs": [],
					"name": "WithdrawFunds",
					"outputs": [],
					"stateMutability": "nonpayable",
					"type": "function"
				},
				{
					"stateMutability": "payable",
					"type": "receive"
				}
			],
			"devdoc": {
				"kind": "dev",
				"methods": {},
				"version": 1
			},
			"evm": {
				"assembly": "    /* \"contracts/FundmeContract.sol\":77:760  contract FundMe{... */\n  mstore(0x40, 0xa0)\n    /* \"contracts/FundmeContract.sol\":398:446  constructor(){... */\n  callvalue\n  dup1\n  iszero\n  tag_1\n  jumpi\n  0x00\n  dup1\n  revert\ntag_1:\n  pop\n    /* \"contracts/FundmeContract.sol\":429:439  msg.sender */\n  caller\n    /* \"contracts/FundmeContract.sol\":421:439  owner = msg.sender */\n  0xffffffffffffffffffffffffffffffffffffffff\n  and\n  0x80\n  dup2\n  0xffffffffffffffffffffffffffffffffffffffff\n  and\n  0x60\n  shl\n  dup2\n  mstore\n  pop\n  pop\n    /* \"contracts/FundmeContract.sol\":77:760  contract FundMe{... */\n  shr(0x60, mload(0x80))\n  codecopy(0x00, dataOffset(sub_0), dataSize(sub_0))\n  0x00\n  assignImmutable(\"0x731dc163f73d31d8c68f9917ce4ff967753939f70432973c04fd2c2a48148607\")\n  return(0x00, dataSize(sub_0))\nstop\n\nsub_0: assembly {\n        /* \"contracts/FundmeContract.sol\":77:760  contract FundMe{... */\n      mstore(0x40, 0x80)\n      jumpi(tag_1, lt(calldatasize, 0x04))\n      shr(0xe0, calldataload(0x00))\n      dup1\n      0x4c0aac9a\n      eq\n      tag_3\n      jumpi\n      dup1\n      0xca8bcec9\n      eq\n      tag_4\n      jumpi\n      jump(tag_2)\n    tag_1:\n      jumpi(tag_2, calldatasize)\n        /* \"contracts/FundmeContract.sol\":582:596  ReceiveFunds() */\n      tag_7\n        /* \"contracts/FundmeContract.sol\":582:594  ReceiveFunds */\n      tag_8\n        /* \"contracts/FundmeContract.sol\":582:596  ReceiveFunds() */\n      jump\t// in\n    tag_7:\n        /* \"contracts/FundmeContract.sol\":77:760  contract FundMe{... */\n      stop\n    tag_2:\n        /* \"contracts/FundmeContract.sol\":646:660  ReceiveFunds() */\n      tag_11\n        /* \"contracts/FundmeContract.sol\":646:658  ReceiveFunds */\n      tag_8\n        /* \"contracts/FundmeContract.sol\":646:660  ReceiveFunds() */\n      jump\t// in\n    tag_11:\n        /* \"contracts/FundmeContract.sol\":77:760  contract FundMe{... */\n      stop\n        /* \"contracts/FundmeContract.sol\":497:540  function WithdrawFunds() public OnlyOwner{} */\n    tag_3:\n      callvalue\n      dup1\n      iszero\n      tag_12\n      jumpi\n      0x00\n      dup1\n      revert\n    tag_12:\n      pop\n      tag_13\n      tag_14\n      jump\t// in\n    tag_13:\n      stop\n        /* \"contracts/FundmeContract.sol\":452:492  function ReceiveFunds() public payable{} */\n    tag_4:\n      tag_15\n      tag_8\n      jump\t// in\n    tag_15:\n      stop\n    tag_8:\n      jump\t// out\n        /* \"contracts/FundmeContract.sol\":497:540  function WithdrawFunds() public OnlyOwner{} */\n    tag_14:\n        /* \"contracts/FundmeContract.sol\":716:721  owner */\n      immutable(\"0x731dc163f73d31d8c68f9917ce4ff967753939f70432973c04fd2c2a48148607\")\n        /* \"contracts/FundmeContract.sol\":704:721  msg.sender!=owner */\n      0xffffffffffffffffffffffffffffffffffffffff\n      and\n        /* \"contracts/FundmeContract.sol\":704:714  msg.sender */\n      caller\n        /* \"contracts/FundmeContract.sol\":704:721  msg.sender!=owner */\n      0xffffffffffffffffffffffffffffffffffffffff\n      and\n      eq\n        /* \"contracts/FundmeContract.sol\":701:740  if(msg.sender!=owner) revert NotOwner() */\n      tag_18\n      jumpi\n        /* \"contracts/FundmeContract.sol\":730:740  NotOwner() */\n      mload(0x40)\n      0x30cd747100000000000000000000000000000000000000000000000000000000\n      dup2\n      mstore\n      0x04\n      add\n      mload(0x40)\n      dup1\n      swap2\n      sub\n      swap1\n      revert\n        /* \"contracts/FundmeContract.sol\":701:740  if(msg.sender!=owner) revert NotOwner() */\n    tag_18:\n        /* \"contracts/FundmeContract.sol\":497:540  function WithdrawFunds() public OnlyOwner{} */\n      jump\t// out\n\n    auxdata: 0xa2646970667358221220bcdeed842dfce6ef05bff846eb34d79763043716828117763070c1491fa5448c64736f6c63430008070033\n}\n",
				"bytecode": {
					"linkReferences": {},
					"object": "60a060405234801561001057600080fd5b503373ffffffffffffffffffffffffffffffffffffffff1660808173ffffffffffffffffffffffffffffffffffffffff1660601b8152505060805160601c6101176100656000396000605d01526101176000f3fe60806040526004361060295760003560e01c80634c0aac9a14603d578063ca8bcec9146051576035565b3660355760336059565b005b603b6059565b005b348015604857600080fd5b50604f605b565b005b60576059565b005b565b7f000000000000000000000000000000000000000000000000000000000000000073ffffffffffffffffffffffffffffffffffffffff163373ffffffffffffffffffffffffffffffffffffffff161460df576040517f30cd747100000000000000000000000000000000000000000000000000000000815260040160405180910390fd5b56fea2646970667358221220bcdeed842dfce6ef05bff846eb34d79763043716828117763070c1491fa5448c64736f6c63430008070033",
					"opcodes": "PUSH1 0xA0 PUSH1 0x40 MSTORE CALLVALUE DUP1 ISZERO PUSH2 0x10 JUMPI PUSH1 0x0 DUP1 REVERT JUMPDEST POP CALLER PUSH20 0xFFFFFFFFFFFFFFFFFFFFFFFFFFFFFFFFFFFFFFFF AND PUSH1 0x80 DUP2 PUSH20 0xFFFFFFFFFFFFFFFFFFFFFFFFFFFFFFFFFFFFFFFF AND PUSH1 0x60 SHL DUP2 MSTORE POP POP PUSH1 0x80 MLOAD PUSH1 0x60 SHR PUSH2 0x117 PUSH2 0x65 PUSH1 0x0 CODECOPY PUSH1 0x0 PUSH1 0x5D ADD MSTORE PUSH2 0x117 PUSH1 0x0 RETURN INVALID PUSH1 0x80 PUSH1 0x40 MSTORE PUSH1 0x4 CALLDATASIZE LT PUSH1 0x29 JUMPI PUSH1 0x0 CALLDATALOAD PUSH1 0xE0 SHR DUP1 PUSH4 0x4C0AAC9A EQ PUSH1 0x3D JUMPI DUP1 PUSH4 0xCA8BCEC9 EQ PUSH1 0x51 JUMPI PUSH1 0x35 JUMP JUMPDEST CALLDATASIZE PUSH1 0x35 JUMPI PUSH1 0x33 PUSH1 0x59 JUMP JUMPDEST STOP JUMPDEST PUSH1 0x3B PUSH1 0x59 JUMP JUMPDEST STOP JUMPDEST CALLVALUE DUP1 ISZERO PUSH1 0x48 JUMPI PUSH1 0x0 DUP1 REVERT JUMPDEST POP PUSH1 0x4F PUSH1 0x5B JUMP JUMPDEST STOP JUMPDEST PUSH1 0x57 PUSH1 0x59 JUMP JUMPDEST STOP JUMPDEST JUMP JUMPDEST PUSH32 0x0 PUSH20 0xFFFFFFFFFFFFFFFFFFFFFFFFFFFFFFFFFFFFFFFF AND CALLER PUSH20 0xFFFFFFFFFFFFFFFFFFFFFFFFFFFFFFFFFFFFFFFF AND EQ PUSH1 0xDF JUMPI PUSH1 0x40 MLOAD PUSH32 0x30CD747100000000000000000000000000000000000000000000000000000000 DUP2 MSTORE PUSH1 0x4 ADD PUSH1 0x40 MLOAD DUP1 SWAP2 SUB SWAP1 REVERT JUMPDEST JUMP INVALID LOG2 PUSH5 0x6970667358 0x22 SLT KECCAK256 0xBC 0xDE 0xED DUP5 0x2D 0xFC 0xE6 0xEF SDIV 0xBF 0xF8 CHAINID 0xEB CALLVALUE 0xD7 SWAP8 PUSH4 0x4371682 DUP2 OR PUSH23 0x3070C1491FA5448C64736F6C6343000807003300000000 "
				},
				"gasEstimates": {
					"creation": {
						"codeDepositCost": "55800",
						"executionCost": "infinite",
						"totalCost": "infinite"
					},
					"external": {
						"": "131",
						"ReceiveFunds()": "120",
						"WithdrawFunds()": "infinite"
					}
				},
				"methodIdentifiers": {
					"ReceiveFunds()": "ca8bcec9",
					"WithdrawFunds()": "4c0aac9a"
				}
			},
			"storageLayout": {
				"storage": [
					{
						"astId": 24,
						"contract": "contracts/FundmeContract.sol:FundMe",
						"label": "AddresstoFundedAmount",
						"offset": 0,
						"slot": "0",
						"type": "t_mapping(t_address,t_uint256)"
					},
					{
						"astId": 27,
						"contract": "contracts/FundmeContract.sol:FundMe",
						"label": "funders",
						"offset": 0,
						"slot": "1",
						"type": "t_array(t_address)dyn_storage"
					}
				],
				"types": {
					"t_address": {
						"encoding": "inplace",
						"label": "address",
						"numberOfBytes": "20"
					},
					"t_array(t_address)dyn_storage": {
						"base": "t_address",
						"encoding": "dynamic_array",
						"label": "address[]",
						"numberOfBytes": "32"
					},
					"t_mapping(t_address,t_uint256)": {
						"encoding": "mapping",
						"key": "t_address",
						"label": "mapping(address => uint256)",
						"numberOfBytes": "32",
						"value": "t_uint256"
					},
					"t_uint256": {
						"encoding": "inplace",
						"label": "uint256",
						"numberOfBytes": "32"
					}
				}
			},
			"userdoc": {
				"kind": "user",
				"methods": {},
				"version": 1
			}
		}
	}
}